:020000040800F2
:1000000000000220652100089109000893090008FA
:1000100095090008970900089909000800000000E8
:100020000000000000000000000000009B09000824
:100030009D090008000000009F090008A1090008B0
:10004000B5210008B5210008B5210008B521000838
:10005000B5210008B5210008B5210008B521000828
:10006000B5210008B5210008B5210008B521000818
:10007000B5210008B5210008B5210008B521000808
:10008000B5210008B5210008B5210008B5210008F8
:10009000B5210008B5210008B5210008B5210008E8
:1000A000B5210008A9090008B5210008B5210008FC
:1000B000B5210008B5210008B5210008B5210008C8
:1000C000B5210008B5210008B5210008B5210008B8
:1000D000B5210008B9090008B5210008B5210008BC
:1000E000B5210008B5210008B5210008B521000898
:1000F000B5210008B5210008B5210008B521000888
:10010000B5210008B5210008B5210008B521000877
:10011000B5210008B5210008B5210008B521000867
:10012000B5210008B5210008B5210008B521000857
:10013000B5210008B5210008B5210008B521000847
:10014000B5210008B5210008B5210008B521000837
:10015000B5210008B5210008B5210008B521000827
:10016000B5210008B5210008B5210008B521000817
:10017000B5210008B5210008B521000800000000E5
:08018000B5210008B5210008BB
:1001900010B5054C237833B9044B13B10448AFF3C1
:1001A00000800123237010BD7000002000000000BB
:1001B0001432000808B5034B1BB103490348AFF3E1
:1001C000008008BD00000000740000201432000808
:1001D00001F0FF01102A2BDB10F0070F08D010F8F8
:1001E000013B013A8B422DD010F0070F42B3F6D1FC
:1001F000F0B441EA012141EA014122F007047FF015
:1002000000070023F0E80256083C85EA010586EA6B
:10021000010685FA47F5A3FA87F586FA47F6A5FAA7
:1002200087F68EB9EED1F0BC01F0FF0102F00702B3
:1002300032B110F8013B013A83EA010313B1F8D15E
:100240000020704701387047002D06BF354603383F
:10025000073815F0010F07D1013015F4807F02BF78
:10026000013015F4C03F0130F0BC0138704700BFC9
:1002700053B94AB9002908BF00281CBF4FF0FF310D
:100280004FF0FF3000F06EB9ADF1080C6DE904CE0F
:1002900000F006F8DDF804E0DDE9022304B0704761
:1002A0002DE9F047089D04468C46002B40F08380E2
:1002B0008A42174647D9B2FA82F242B1C2F120000F
:1002C00024FA00F09140974040EA010C94404FEA34
:1002D0001748230CBCFBF8F61FFA87FE08FB16C173
:1002E00043EA014306FB0EF1994209D9FB1806F1D6
:1002F000FF3080F01981994240F21681023E3B4462
:100300005B1AA4B2B3FBF8F008FB103344EA0344D1
:1003100000FB0EFEA64509D93C1900F1FF3380F021
:100320000581A64540F2028102383C4440EA06407D
:10033000A4EB0E0400261DB1D4400023C5E9004300
:100340003146BDE8F08702B9FFDEB2FA82F2002A38
:1003500050D1CB1B4FEA174E1FFA87F80126B3FB8B
:10036000FEFC210C0EFB1C3341EA034108FB0CF39D
:100370008B4207D979180CF1FF3002D28B4200F280
:10038000E9808446C91AA3B2B1FBFEF00EFB10113E
:1003900043EA014408FB00F8A04507D93C1900F1E5
:1003A000FF3302D2A04500F2D9801846A4EB08041E
:1003B00040EA0C40BFE78B4209D9002D00F0B18024
:1003C0000026C5E9000130463146BDE8F087B3FAA2
:1003D00083F6002E4AD18B4202D3824200F2B880CB
:1003E000841A61EB030101208C46002DA8D0C5E9D9
:1003F000004CA5E7C2F1200320FA03F6974001FA6A
:1004000002F04FEA174ED9403043030CB1FBFEF621
:100410001FFA87F80EFB161143EA014306FB08F1A9
:10042000994204FA02F409D9FB1806F1FF3C80F066
:100430008D80994240F28A80023E3B445B1A81B231
:10044000B3FBFEF00EFB103341EA034100FB08F35F
:100450008B4207D9791800F1FF3C73D28B4271D9D6
:1004600002383944CB1A40EA064678E7C6F1200C38
:1004700003FA06F422FA0CF31C4320FA0CF701FAF3
:1004800006F34FEA144E21FA0CF11F433B0CB1FB6B
:10049000FEF91FFA84F80EFB191143EA014109FB2A
:1004A00008FA8A4502FA06F200FA06F308D961183A
:1004B00009F1FF3048D28A4546D9A9F10209214401
:1004C000A1EB0A01BFB2B1FBFEF00EFB101147EA2F
:1004D000014700FB08F8B84507D9E71900F1FF31DB
:1004E0002ED2B8452CD90238274440EA0940A7EB60
:1004F0000807A0FB02894F45C64649461AD317D0C4
:100500005DB1B3EB0E0267EB010707FA0CFCF2409A
:100510004CEA0202F740C5E9002700263146BDE853
:10052000F0872E4628460BE70646E9E61846FDE624
:100530004345E5D2B8EB020E69EB04010138DFE771
:100540000846D2E760468DE78146B9E7664675E71B
:1005500030464AE7ACF1020C394413E702383C4418
:1005600024E700BF704700BF10B582B004468DF885
:1005700004004FF6FF73012201A9034801F07BFB41
:10058000204602B010BD00BFE800002070B50C4648
:1005900016460025B54205DA14F8010BFFF7E4FF13
:1005A0000135F7E7304670BD72B6FEE700B595B08D
:1005B0003022002108A801F023FE002303930493B6
:1005C00005930693079301931E4A116C41F08051E5
:1005D0001164126C02F080520192019A02931A4A3D
:1005E000116841F480411160126802F48042029265
:1005F000029A0222089201210B9110210C910E9275
:100600000F9310914FF4907311931292042313934C
:1006100008A800F08BFC88B90F23039302230493EE
:10062000002305934FF4A05306930793042103A8D6
:1006300000F0C8FE20B915B05DF804FBFFF7B4FF69
:10064000FFF7B2FF003802400070004038B50025C7
:1006500001F074F9FFF7AAFF00F048F800F084F801
:1006600000F0EEF81B4C01222021204601F06AF830
:1006700001224021204601F065F817E0D4B221465E
:10068000154801F0C5FD4FF47A732246134914480A
:1006900001F0F1FA124B1B681B6813F0400FF9D000
:1006A000104801F03BFE104B00221A800E4B1A88B6
:1006B000B3F90030002BE1DB6B1CDDB213F0FF0F50
:1006C000F4D14021034801F043F8322001F062F9EF
:1006D000ECE700BF001002402C3200082C01002083
:1006E000E8000020503200088C00002030B589B0AE
:1006F0000024039404940594069407940094184BE2
:100700001A6B42F010021A631A6B02F01002009288
:10071000009A01941A6B42F080021A631A6B02F07D
:1007200080020192019A02941A6B42F001021A634C
:100730001B6B03F001030293029B0A4D22466021CA
:10074000284600F0FFFF60230393012304930594E0
:10075000069403A9284600F00BFF09B030BD00BF86
:10076000003802400010024000B587B00023029319
:10077000039304930593009301931748174A02606B
:1007800041F61F424260836042F20F72C260036111
:100790004361836100F0CCFAA8B94FF4805302930F
:1007A00002A90D4800F0FCFA80B9002300930193E0
:1007B0006946094800F074FB58B9074800F04EF943
:1007C00007B05DF804FBFFF7EFFEE6E7FFF7ECFE8E
:1007D000EBE7FFF7E9FEF0E79C0000200000014096
:1007E00008B50268044B9A4200D008BD2021034896
:1007F00000F0AEFFF9E700BF00000140001002402A
:1008000002680E4B9A4200D0704700B583B00021B9
:10081000019103F59C335A6C42F001025A645B6CFF
:1008200003F001030193019B0A46192001F008F827
:10083000192001F039F803B05DF804FB0000014015
:1008400008B50D480D4B03604FF4E13343600023BE
:100850008360C36003610C2242618361C36101F064
:10086000DBF928B901220649034801F054FC08BD10
:10087000FFF79AFEF6E700BFE800002000100140F5
:10088000E400002010B588B000230393049305937F
:1008900006930793026803F1804303F588339A4275
:1008A00001D008B010BD0024019403F594335A6CB4
:1008B00042F010025A645A6C02F010020192019A3E
:1008C00002941A6B42F001021A631B6B03F00103DE
:1008D0000293029B4FF4C063039302230493059495
:1008E000032306930723079303A9064800F040FE5D
:1008F00022462146252000F0A3FF252000F0D4FF4A
:10090000CFE700BF0000024008B502681B4B9A42C7
:1009100000D008BD1A4A1388B2F90020002A09DB6A
:1009200013F4804F13D0174A12780A2A08D0144BB8
:1009300000221A8001221349134801F0ECFBE8E77A
:100940006FEA43436FEA53430D4A1380F2E70D4ABF
:1009500012780D2A0DD0C3F30D010C484254013317
:100960009BB2074A1380C72BE4D9134600221A8092
:10097000E0E743F48043024A1380DBE700100140C4
:100980008C000020E4000020E80000202C01002062
:10099000FEE7FEE7FEE7FEE7FEE7704770477047B9
:1009A00008B500F0E5FF08BD08B5024800F09EF864
:1009B00008BD00BF9C00002008B5024801F050FAB5
:1009C00008BD00BFE800002082B0002100910B4B61
:1009D0005A6C42F480425A645A6C02F4804200928B
:1009E000009A01911A6C42F080521A641B6C03F059
:1009F00080530193019B02B0704700BF0038024052
:100A000030B4036A056A25F001050562846924F0A3
:100A1000F00444EA021423F00A030B4384610362E6
:100A200030BC704730B4056A25F010050562846952
:100A3000036A24F4704444EA023423F0A00343EA36
:100A400001138461036230BC7047836823F0700334
:100A50000B4343F0070383607047000090F83D307C
:100A6000DBB2012B37D1022380F83D300268D36816
:100A700043F00103D3600368194A934220D0B3F1D5
:100A8000804F1DD0A2F57C42934219D002F58062BE
:100A9000934215D002F58062934211D002F578425C
:100AA00093420DD002F57052934209D0A2F59432D0
:100AB000934205D01A6842F001021A600020704784
:100AC0009A6802F00702062A07D01A6842F001026B
:100AD0001A6000207047012070470020704700BF57
:100AE00000000140704770477047704710B50446DA
:100AF00003681A6912F0020F11D0DA6812F0020FBF
:100B00000DD06FF002021A610123037703689B691D
:100B100013F0030F70D0FFF7E6FF0023237723685D
:100B20001A6912F0040F12D0DA6812F0040F0ED016
:100B30006FF004021A610223237723689B6913F480
:100B4000407F5FD02046FFF7CEFF00232377236846
:100B50001A6912F0080F12D0DA6812F0080F0ED0DE
:100B60006FF008021A61042323772368DB6913F00E
:100B7000030F4ED02046FFF7B6FF002323772368EC
:100B80001A6912F0100F12D0DA6812F0100F0ED09E
:100B90006FF010021A61082323772368DB6913F4CE
:100BA000407F3DD02046FFF79EFF00232377236838
:100BB0001A6912F0010F03D0DA6812F0010F36D172
:100BC00023681A6912F0800F03D0DA6812F0800FE0
:100BD00034D123681A6912F0400F03D0DA6812F09A
:100BE000400F32D123681A6912F0200F03D0DA685F
:100BF00012F0200F30D110BDFFF774FF2046FFF731
:100C000073FF8AE72046FFF76DFF2046FFF76CFF72
:100C10009BE72046FFF766FF2046FFF765FFACE73E
:100C20002046FFF75FFF2046FFF75EFFBDE76FF04E
:100C300001021A612046FFF7D3FDC1E76FF0800281
:100C40001A61204600F071F9C3E76FF040021A61A3
:100C50002046FFF74AFFC5E76FF020021A612046E1
:100C600000F062F9C7E700000368304A904212D0F2
:100C7000B0F1804F0FD0A2F57C4290420BD002F52C
:100C80008062904207D002F58062904203D002F564
:100C90007842904203D123F070034A681343234AF9
:100CA00090422AD0B0F1804F27D0A2F57C429042EA
:100CB00023D002F5806290421FD002F580629042FC
:100CC0001BD002F57842904217D002F57052904244
:100CD00013D002F5806290420FD002F580629042FC
:100CE0000BD0A2F59832904207D002F58062904274
:100CF00003D002F58062904203D123F44073CA68A6
:100D0000134323F080034A69134303608B68C36273
:100D10000B688362054B984203D003F580639842C9
:100D200001D10B6903630123436170470000014057
:100D300040B310B5044690F83D30F3B1022384F877
:100D40003D30214651F8040BFFF78EFF012384F854
:100D5000463084F83E3084F83F3084F8403084F8E0
:100D6000413084F8423084F8433084F8443084F8C9
:100D7000453084F83D30002010BD80F83C30FFF74E
:100D80003FFDDBE70120704710B4846824F47F4402
:100D900042EA03220A43224382605DF8044B704713
:100DA00090F83C30012B78D010B50446012380F830
:100DB0003C30022380F83D300268936823F47F437F
:100DC00023F0770393600B68602B4CD029D8402B1D
:100DD00054D00CD9502B22D1CA6849680068FFF75B
:100DE0000FFE50212068FFF730FE002005E0202B89
:100DF0000DD009D9302B0AD00120012384F83D30D1
:100E0000002384F83C3010BD0BB1102B05D11946DE
:100E10002068FFF71AFE0020EFE70120EDE7012030
:100E2000EBE7B3F5805F34D0B3F5005F0CD1CB684E
:100E30004A6889680068FFF7A7FF2268936843F44F
:100E4000804393600020D8E7702B24D1CB684A6898
:100E500089680068FFF798FF2268936843F077037A
:100E600093600020C9E7CA6849680068FFF7DAFDA7
:100E700060212068FFF7E9FD0020BEE7CA684968E5
:100E80000068FFF7BDFD40212068FFF7DEFD002070
:100E9000B3E70020B1E70120AFE702207047000070
:100EA00090F83C30012B3BD030B4012380F83C302B
:100EB000022380F83D3003685C689D6824F070046C
:100EC0000A6822435A600368164A93421AD0B3F163
:100ED000804F17D0A2F57C42934213D002F5806276
:100EE00093420FD002F5806293420BD002F5784214
:100EF000934207D002F57052934203D0A2F5943288
:100F0000934204D125F080054A6815439D60012372
:100F100080F83D30002380F83C30184630BC7047E4
:100F2000022070470000014070477047002800F021
:100F3000DF8170B582B00446036813F0010F3BD027
:100F4000A64B9B6803F00C03042B2CD0A34B9B688F
:100F500003F00C03082B21D06368B3F5803F4FD01A
:100F6000B3F5A02F52D09D4B1A6822F480321A603C
:100F70001A6822F480221A606368002B50D000F0B7
:100F800003FD0546954B1B6813F4003F14D100F098
:100F9000FBFC401B6428F5D90320B0E18F4B5B6854
:100FA00013F4800FD8D08D4B1B6813F4003F03D08F
:100FB0006368002B00F09E81236813F0020F54D069
:100FC000864B9B6813F00C0F3ED0844B9B6803F05C
:100FD0000C03082B33D0E368002B67D0804B012231
:100FE0001A6000F0D1FC05467C4B1B6813F0020F21
:100FF00053D100F0C9FC401B0228F5D903207EE143
:10100000764A136843F480331360B5E7734B1A686C
:1010100042F480221A601A6842F480321A60ABE708
:1010200000F0B2FC05466D4B1B6813F4003FC3D0C3
:1010300000F0AAFC401B6428F5D903205FE1674B50
:101040005B6813F4800FC6D1644B1B6813F0020F6A
:1010500003D0E368012B40F04F81604A136823F00E
:10106000F803216943EAC1031360236813F0080FF2
:1010700040D0636963B35B4B01221A6000F084FCCB
:101080000546564B5B6F13F0020F33D100F07CFC2A
:10109000401B0228F5D9032031E1504A136823F0A0
:1010A000F803216943EAC1031360DEE74C4B0022D9
:1010B0001A6000F069FC0546484B1B6813F0020FEC
:1010C000D3D000F061FC401B0228F5D9032016E1C3
:1010D000444B00221A6000F057FC05463F4B5B6F03
:1010E00013F0020F06D000F04FFC401B0228F5D988
:1010F000032004E1236813F0040F78D0374B1B6CF6
:1011000013F0805F0DD100230193344B1A6C42F031
:1011100080521A641B6C03F080530193019B0125DC
:1011200000E00025304B1B6813F4807F21D0A368BA
:10113000012B32D0052B36D0284B1A6F22F001023A
:101140001A671A6F22F004021A67A368002B34D0C2
:1011500000F01AFC0646214B1B6F13F0020F45D11D
:1011600000F012FC801B41F288339842F3D903202F
:10117000C5E01D4A136843F48073136000F004FC5B
:101180000646194B1B6813F4807FD0D100F0FCFB9E
:10119000801B0228F5D90320B1E0104A136F43F0F9
:1011A00001031367D1E70D4B1A6F42F004021A676F
:1011B0001A6F42F001021A67C7E700F0E5FB064626
:1011C000064B1B6F13F0020F10D000F0DDFB801BED
:1011D00041F288339842F3D9032090E0003802406E
:1011E00000004742800E474200700040EDB9A369FD
:1011F000002B00F08380494A926802F00C02082A12
:1012000051D0022B17D0464B00221A6000F0BCFBD5
:101210000446424B1B6813F0007F42D000F0B4FB41
:10122000001B0228F5D9032069E03C4A136C23F027
:1012300080531364DBE73A4B00221A6000F0A4FBF2
:101240000546364B1B6813F0007F06D000F09CFB70
:10125000401B0228F5D9032051E0E369226A1343B9
:10126000626A43EA8213A26A5208013A43EA0243DD
:10127000E26A43EA0263294A5360294B01221A6059
:1012800000F082FB0446254B1B6813F0007F06D15B
:1012900000F07AFB001B0228F5D903202FE0002084
:1012A0002DE000202BE0012B2BD01C4B5B6803F4BE
:1012B0008001E269914226D103F03F02216A8A420D
:1012C00023D1616A47F6C0721A40B2EB811F1ED16A
:1012D00003F44031A26A5208013AB1EB024F18D12F
:1012E00003F07063E26AB3EB026F14D1002006E0F2
:1012F00001207047012002E0012000E0002002B040
:1013000070BD0120FBE70120F9E70120F7E701208C
:10131000F5E70120F3E70120F1E700BF00380240C4
:1013200060004742F8B5244B9B6803F00C03042B84
:101330003DD0082B3DD1204B5A6802F03F025B683C
:1013400013F4800F12D01C4B5968C1F3881100238D
:101350001A48A1FB0001FEF78BFF174B5B68C3F334
:10136000014301335B00B0FBF3F023E0124B5B68F9
:10137000C3F388135C010025E41A65F10005AE0192
:1013800046EA9466A701381B66EB0501CC0044EAE7
:101390005074C500E81844F100018B0243EA9053F1
:1013A0008402204619460023FEF762FFD5E7034872
:1013B00000E00348F8BD00BF0038024040787D01DE
:1013C0000024F400002800F09B8070B50D46044610
:1013D0004F4B1B6803F007038B4208D2CBB24C4A39
:1013E0001370136803F007038B4240F08B8023686F
:1013F00013F0020F17D013F0040F04D0454A93687E
:1014000043F4E0539360236813F0080F04D0414A7B
:10141000936843F4604393603E4A936823F0F0037B
:10142000A1680B439360236813F0010F32D0636807
:10143000012B21D09A1E012A25D9364A126812F0B2
:10144000020F61D033498A6822F0030213438B6094
:1014500000F09AFA06462F4B9B6803F00C03626873
:10146000B3EB820F16D000F08FFA801B41F2883365
:101470009842F0D9032042E0264A126812F4003F55
:10148000E0D101203BE0234A126812F0007FD9D15D
:10149000012034E01E4B1B6803F00703AB4207D961
:1014A000EAB21B4B1A701B6803F00703AB422DD145
:1014B000236813F0040F06D0164A936823F4E05310
:1014C000E1680B439360236813F0080F07D0114ABB
:1014D000936823F46043216943EAC1039360FFF7F3
:1014E00021FF0C4B9B68C3F303130B4AD35CD8401A
:1014F0000A4B18600A4B186800F0FAF9002070BD1A
:10150000012070470120FAE70120F8E70120F6E703
:10151000003C02400038024054320008080000201D
:1015200004000020014B1868704700BF080000202D
:1015300008B5FFF7F7FF044B9B68C3F38223034A08
:10154000D35CD84008BD00BF0038024064320008B8
:1015500008B5FFF7E7FF044B9B68C3F34233034A28
:10156000D35CD84008BD00BF003802406432000898
:1015700000230F2B00F2DD80F0B482B05DE08668BE
:101580005F000324BC4026EA0406CC68BC40344318
:101590008460466826EA02064C68C4F300129A404A
:1015A0003243426057E0DC08083450F8247003F0FE
:1015B000070296000F22B24027EA02070A69B240EA
:1015C0003A4340F824205AE0072200E00022B240CB
:1015D0003A430234574E46F82420574A1468EA43E7
:1015E00024EA05064F6817F4803F01D045EA040657
:1015F000514C2660646802EA04064F6817F4003F05
:1016000001D045EA04064C4C6660A46802EA040670
:101610004F6817F4801F01D045EA0406464CA660C7
:10162000E46822404E6816F4001F01D045EA040227
:10163000414CE26001330F2B78D801229A400C68AC
:1016400004EA020532EA0404F4D14C6804F003040D
:10165000013C012C93D94A6802F00302032A09D005
:10166000C4685E000322B24024EA02048A68B240E1
:101670002243C2604A6802F00302022A93D004683F
:101680005E000322B24024EA02044A6802F0030228
:10169000B240224302604A6812F4403FCAD000229E
:1016A0000192264A546C44F480445464526C02F40F
:1016B00080420192019A9C08A61C1E4A52F826708C
:1016C00003F0030296000F22B24027EA02071C4AE9
:1016D00090423FF47BAF02F5806290421AD002F54F
:1016E0008062904218D002F58062904216D002F5D6
:1016F0008062904214D002F58062904212D002F5CE
:101700008062904210D002F5806290423FF45CAF5C
:1017100008225CE701225AE7022258E7032256E733
:10172000042254E7052252E7062250E702B0F0BC3B
:101730007047704700380140003C014000380240CB
:10174000000002400AB1816170470904816170475D
:10175000436901EA030221EA030141EA024181618E
:10176000704770B50446866D00F00EF994F8353078
:10177000DBB2022B06D080236365002384F834306B
:10178000012070BD05462268136823F0160313601C
:101790002268536923F080035361236CE3B122680C
:1017A000136823F0080313602268136823F0010311
:1017B000136023681B6813F0010F11D000F0E4F8E8
:1017C000431B052BF5D920236365032084F83500DE
:1017D000002384F83430D4E7A36C002BDFD1E3E797
:1017E000E26D3F239340B360012384F8353000203D
:1017F00084F83400C5E790F83530DBB2022B03D013
:101800008023436501207047052380F83530026846
:10181000136823F00103136000207047074AD36860
:1018200023F4E0631B041B0C000200F4E06003439C
:1018300043F0BF6343F40033D360704700ED00E032
:1018400030B4174BDB68C3F30223C3F10704042C45
:1018500028BF04241D1D062D18D9033B4FF0FF356A
:1018600005FA04F421EA0401994005FA03F322EA97
:101870000303194300280BDB0901C9B200F16040E2
:1018800000F5614080F8001330BC70470023E5E7A5
:1018900000F00F000901C9B2024B1954F4E700BF70
:1018A00000ED00E014ED00E0002807DB00F01F026F
:1018B000400901239340024A42F82030704700BF9C
:1018C00000E100E00138B0F1807F0AD2064B586099
:1018D000064AF02182F823100020986007221A603F
:1018E00070470120704700BF10E000E000ED00E00D
:1018F00010B504460E4B18784FF47A73B3FBF0F32F
:101900000C4A1068B0FBF3F0FFF7DCFF68B90F2C4E
:1019100001D901200AE0002221464FF0FF30FFF7F5
:101920008FFF054B1C60002000E0012010BD00BFB0
:1019300000000020080000200400002008B50B4B28
:101940001A6842F400721A601A6842F480621A60DF
:101950001A6842F480721A600320FFF75FFF0F20BD
:10196000FFF7C6FFFFF730F8002008BD003C02403B
:10197000034A1168034B1B780B441360704700BF88
:10198000F401002000000020014B1868704700BFE0
:10199000F401002038B50446FFF7F6FF0546B4F120
:1019A000FF3F02D0044B1B781C44FFF7EDFF401BA8
:1019B000A042FAD338BD00BF00000020026802F147
:1019C0000C0353E8003F23F490730C3242E80031DB
:1019D0000029F3D1026802F1140353E8003F23F019
:1019E0000103143242E800310029F3D1036B012BCB
:1019F00005D0202380F83E3000230363704702683F
:101A000002F10C0353E8003F23F010030C3242E8CC
:101A100000310029F3D1ECE790F83D30DBB2212B07
:101A200001D0022070478368B3F5805F17D0036A46
:101A30005A1C02621A7803685A60C38C9BB2013B3D
:101A40009BB2C3844BB90268D36823F08003D36090
:101A50000268D36843F04003D360002070470369F5
:101A6000002BE4D1036A1B880268C3F308035360A8
:101A7000036A02330362E0E770B504460268136943
:101A800023F44053C1680B43136183680269134315
:101A900042691343C2691A430168CB6823F41643B1
:101AA00023F00C031343CB600268536923F44073A3
:101AB00081690B4353610368344A934206D002F5AF
:101AC0008062934202D0FFF733FD01E0FFF740FD53
:101AD000E369B3F5004F2AD00026051846EB06014E
:101AE0002D1846EB0101CB0043EA5573EA00154679
:101AF000194663689A009B0F281846EB0101FEF710
:101B0000B7FB234DA5FB00325109642303FB1103EE
:101B10001B013233A5FB03235B0903F0F00202EB48
:101B2000011203F00F03216813448B6070BD00267F
:101B3000051846EB06012D1846EB0101CB0043EAE0
:101B40005573EA001546194662683346921846EB0B
:101B50000303281846EB0101FEF78AFB0C4DA5FB99
:101B600000325109642303FB1103DB003233A5FB70
:101B700003235B095A0002F4F87202EB011203F02E
:101B80000703216813448B60D0E700BF00100140B9
:101B90001F85EB512DE9F84305460F461646994639
:101BA000DDF820802C68246837EA04030CBF012488
:101BB0000024B4422DD1B8F1FF3FF3D0B8F1000FAB
:101BC00005D0FFF7E1FEA0EB09004045EAD92A68FD
:101BD00002F10C0353E8003F23F4D0730C3242E8C7
:101BE00000310029F3D12A6802F1140353E8003FC1
:101BF00023F00103143242E800310029F3D12023FD
:101C000085F83D3085F83E30002385F83C300320D0
:101C100000E00020BDE8F88358B310B5044690F802
:101C20003D300BB3242384F83D302268D36823F47D
:101C30000053D3602046FFF71FFF2268136923F487
:101C4000904313612268536923F02A035361226889
:101C5000D36843F40053D36000202064202384F829
:101C60003D3084F83E3010BD80F83C30FEF70AFE6F
:101C7000D8E7012070472DE9F04182B01E4690F868
:101C80003D30DBB2202B54D104460D46904600294E
:101C900053D0002A53D090F83C30012B51D001236F
:101CA00080F83C3000230364212380F83D30FFF7A7
:101CB0006BFE0746A4F82480A4F82680A368B3F539
:101CC000805F05D04FF00008002384F83C3012E01C
:101CD000236913B14FF00008F6E7A8460025F3E7A3
:101CE00038F8023B2268C3F308035360E28C92B2D7
:101CF000013A92B2E284E38C9BB273B100963B4608
:101D0000002280212046FFF745FFE0B9002DE7D0F3
:101D100015F8012B23685A60E8E700963B4600223D
:101D200040212046FFF736FF78B9202384F83D3064
:101D300000E0022002B0BDE8F0810120FAE70120B6
:101D4000F8E70220F6E70320F4E70320F2E7704704
:101D500008B50168CA6822F04002CA60202280F8F3
:101D60003D20FFF7F4FF002008BD704708B5806BE9
:101D70000023C385C384FFF7F8FF08BD704790F8C0
:101D80003E30DBB2222B67D18368B3F5805F4DD044
:101D9000826AB3F5805F04D0002B54D10369002B15
:101DA00051D103685B681370836A01338362C38D0A
:101DB0009BB2013B9BB2C385002B4FD100B583B0D2
:101DC0000268D36823F02003D3600268D36823F449
:101DD0008073D3600268536923F0010353612023A9
:101DE00080F83E30036B012B33D10023036302687C
:101DF00002F10C0353E8003F23F010030C3242E8D9
:101E000000310029F3D103681A6812F0100F06D0D0
:101E1000002201921A6801925B680193019B818DF7
:101E2000FFF7ACFF002003B05DF804FB0269002A55
:101E3000AED1826A03685B68C3F308031380836AC8
:101E400002338362B3E703685B6803F07F031370B8
:101E5000AAE7FEF759FDE5E702207047002070472A
:101E600030B583B0044602681368D068516913F036
:101E70000F0505D113F0200F02D010F0200F19D15B
:101E80002DB111F0010119D110F4907F16D1216B01
:101E900001297DD013F0800F03D010F0800F40F0A7
:101EA000158113F0400F03D010F0400F40F0128165
:101EB00003B030BD2046FFF762FFF9E713F0010FD2
:101EC00006D010F4807F03D0226C42F0010222641D
:101ED00013F0040F04D019B1226C42F00202226404
:101EE00013F0020F04D019B1226C42F004022264F4
:101EF00013F0080F07D010F0200F00D119B1226C99
:101F000042F008022264226C002AD1D013F0200F84
:101F100002D010F0200F29D123685B6903F0400341
:101F2000226C12F0080F00D163B32046FFF746FD84
:101F300023685B6913F0400F20D0226802F114037C
:101F400053E8003F23F04003143242E800310029F7
:101F5000F3D1A36B73B1614A1A65A06BFFF74BFC19
:101F60000028A5D0A06B036D9847A1E72046FFF796
:101F700006FFD1E72046FFF7F8FE99E72046FFF776
:101F8000F4FE95E72046FFF7F0FE002323648FE779
:101F900013F0100F3FF47EAF10F0100F3FF47AAF44
:101FA000002301931368019353680193019B5369C4
:101FB00013F0400F50D0A26B13685B689BB2002BEC
:101FC0003FF476AFA18D99427FF672AFE385D36976
:101FD000B3F5807F37D0226802F10C0353E8003F4D
:101FE00023F480730C3242E800310029F3D12268D7
:101FF00002F1140353E8003F23F00103143242E8D6
:1020000000310029F3D1226802F1140353E8003FA4
:1020100023F04003143242E800310029F3D1202399
:1020200084F83E3000232363226802F10C0353E856
:10203000003F23F010030C3242E800310029F3D1B5
:10204000A06BFFF78EFBA18DE38D9BB2C91A89B2FD
:102050002046FFF793FE2BE7A18DE38D9BB2C91AB3
:1020600089B2E38D9BB2002B3FF422AF00293FF4ED
:102070001FAF226802F10C0353E8003F23F4907372
:102080000C3242E800300028F3D1226802F1140338
:1020900053E8003F23F00103143242E800300028E7
:1020A000F3D1202384F83E3000232363226802F119
:1020B0000C0353E8003F23F010030C3242E80030D9
:1020C0000028F3D12046FFF759FEF1E62046FFF73E
:1020D000A3FCEDE62046FFF73BFEE9E66D1D000898
:1020E000034681628285C28500201864222283F81B
:1020F0003E2083F83C001968CA6842F48072CA60C6
:1021000019684A6942F001024A611A68D36843F0CB
:102110002003D360704708B590F83E30DBB2202B27
:102120000DD171B17AB190F83C30012B0DD0012363
:1021300080F83C3000230363FFF7D2FF00E0022069
:1021400008BD0120FCE70120FAE70220F8E70000C3
:10215000034AD2F8883043F47003C2F888307047DD
:1021600000ED00E0DFF834D00D480E490E4A0023A0
:1021700002E0D458C4500433C4188C42F9D30B4A3B
:102180000B4C002301E013600432A242FBD3FFF7A3
:10219000DFFF00F011F8FEF759FA70470000022047
:1021A00000000020700000201433000870000020A0
:1021B00008020020FEE7000070B50D4D0D4C641BB9
:1021C000A4100026A64209D10B4D0C4C01F022F8B8
:1021D000641BA4100026A64205D170BD55F8043B2F
:1021E00098470136EEE755F8043B98470136F2E789
:1021F0000C3300080C3300080C33000810330008BF
:1022000002440346934200D1704703F8011BF9E7EB
:102210000FB40A4B13B51C6824B1A36913B9204647
:1022200000F05EFA05AB049AA1680193204600F025
:102230002FFC02B0BDE8104004B070470C00002035
:1022400070B50E46054618B183690BB900F048FA1F
:10225000AB69AC6813B9284600F042FA2C4B9C429B
:1022600020D16C68636EDB0705D4A389980502D47E
:10227000A06D00F0D3FAA38919071DD52369DBB13E
:10228000013EA36816F8011F013BA36039BB002B78
:1022900038DA22460A21284600F048F8013011D0E9
:1022A0000A2511E01B4B9C4201D1AC68DAE71A4BBE
:1022B0009C4208BFEC68D5E72146284600F088F824
:1022C0000028DDD04FF0FF35636EDA0705D4A3890F
:1022D0009B0502D4A06D00F0A2FA284670BD002B29
:1022E00004DAA2699A4206DC0A2904D023685A1C3F
:1022F00022601970C5E72246284600F017F8013021
:10230000BFD1DFE723680A255A1C22601D70DBE776
:1023100090320008B032000870320008024B0146CB
:102320001868FFF78DBF00BF0C000020F8B50E46FF
:102330001446054618B183690BB900F0D1F9214B59
:102340009C422BD16C68A369A360A3891A072FD57F
:1023500023696BB323692068C01A6369F6B28342AC
:10236000374604DC2146284600F026F930BBA36836
:10237000013BA36023685A1C22601E706369013010
:10238000834204D0A389DB0706D50A2E04D1214657
:10239000284600F011F988B93846F8BD0A4B9C422E
:1023A00001D1AC68CFE7094B9C4208BFEC68CAE793
:1023B0002146284600F00CF80028CBD04FF0FF371C
:1023C000EAE700BF90320008B0320008703200081F
:1023D000324B70B51D6806460C4625B1AB6913B982
:1023E000284600F07DF92E4B9C420FD16C68A389E2
:1023F000B4F90C2019072CD4DD0611D4092333605D
:1024000042F04003A3814FF0FF303EE0254B9C4259
:1024100001D1AC68EBE7244B9C4208BFEC68E6E7CF
:10242000580712D5616B41B104F14403994202D0BF
:10243000304600F059FA00236363A38923F0240394
:10244000A3810023636023692360A38943F0080309
:10245000A38123694BB9A38903F42073B3F5007FEB
:1024600003D02146304600F0FFF9A089B4F90C20D2
:1024700010F001030AD00023A36063695B42A361EB
:10248000236943B910F08000BAD170BD810758BFED
:102490006369A360F4E70020F7E700BF0C000020A9
:1024A00090320008B0320008703200088A892DE9A5
:1024B000F041054610070C4658D44B68002B05DC4C
:1024C0000B6C002B02DC0020BDE8F081E66A002ED8
:1024D000F9D0002312F480522F682B6032D0606D47
:1024E000A3895A0705D56368C01A636B0BB1236CC7
:1024F000C01A00230246E66A216A2846B047431CF8
:10250000A38906D129681D292CD82A4ACA40D60792
:1025100028D500226260D9042269226004D5421CB9
:1025200001D12B6803B96065616B2F600029CAD0A7
:1025300004F14403994202D0284600F0D5F9002066
:102540006063C1E7216A01232846B047411CC7D117
:102550002B68002BC4D01D2B01D0162B01D12F606E
:10256000B1E7A38943F04003A381ADE70F69002FD2
:10257000A9D093070E6808BF4B690F6018BF0023EE
:10258000A6EB07088B60B8F1000F9CDD216AA66AF4
:1025900043463A462846B047002806DCA38943F064
:1025A0004003A3814FF0FF308EE70744A8EB0008FB
:1025B000E9E700BF0100402038B50B6905460C462D
:1025C00013B90025284638BD18B183690BB900F04E
:1025D00087F8144B9C421BD16C68B4F90C30002B6B
:1025E000EFD0626ED00704D4990502D4A06D00F03C
:1025F00015F928462146FFF759FF636EDA070546AD
:10260000E0D4A3899B05DDD4A06D00F008F9D9E7DB
:10261000054B9C4201D1AC68DFE7044B9C4208BFEC
:10262000EC68DAE790320008B03200087032000837
:10263000002310B50446C0E90033C0E904338360C9
:1026400081814366C2818361194608225C30FFF7AD
:10265000D7FD054B6362054BA362054BE362054B57
:102660002462236310BD00BF393000085B300008CE
:1026700093300008B7300008014900F0AFB800BF40
:10268000B925000870B54A1E682555430E4605F168
:10269000740100F079F9044640B10021C0E9001648
:1026A0000C30A06005F16802FFF7AAFD204670BD5E
:1026B000014800F0B3B800BF00020020014800F05C
:1026C000AEB800BF00020020014800F0A7B800BF6C
:1026D000FB010020014800F0A2B800BFFB01002070
:1026E00010B50446FFF7F0FFA3691BB1BDE8104029
:1026F000FFF7F0BFC4E912332365134B134A1B687D
:10270000A262A34204BF0123A361204600F020F887
:102710006060204600F01CF8A060204600F018F829
:102720000022E06004216068FFF782FFA0680122B8
:102730000921FFF77DFFE06802221221FFF778FFF1
:102740000123A361D2E700BF6C320008792600089C
:10275000F8B50746FFF7ACFF1E4B1E68B36913B907
:102760003046FFF7BDFF4836D6E90134013B03D5BB
:1027700033680BB33668F7E7B4F90C50D5B9164B8C
:10278000E36004F15800656600F047F8FFF796FF34
:10279000C4E90155C4E904552560A561082229460C
:1027A00004F15C00FFF72CFDC4E90D55C4E9125596
:1027B0002046F8BD6834D9E704213846FFF762FFA8
:1027C000044630600028D5D1FFF778FF0C233B602A
:1027D000EEE700BF6C3200080100FFFF2DE9F8436F
:1027E0000646884600F148040027D4E90195B9F16E
:1027F000010905D52468002CF7D13846BDE8F883D7
:10280000AB89012B07D9B5F90E30013303D0294626
:102810003046C04707436835E9E77047704770475F
:1028200070B50E46B1F90E10002996B014461D463B
:1028300007DA00232B60B3891A0610D44FF48063A3
:102840000EE06A4600F05EFC0028F2DB019A02F41A
:102850007042A2F500535A425A412A60EEE74023E3
:102860000020236016B070BD8B8973B59D070646A6
:102870000C4607D504F147032360236101236361FC
:1028800002B070BD01AB6A46FFF7CAFF009905466A
:10289000304600F079F848B9B4F90C309A05EFD415
:1028A00023F0030343F00203A381E3E70D4BB3627C
:1028B000A389206043F08003A381009B6361019B97
:1028C00020615BB1B4F90E10304600F02DFC28B148
:1028D000A38923F0030343F00103A381A0890543E7
:1028E000A581CDE77926000837B5002948D051F8F1
:1028F000043C0190002BA1F10404B8BFE41800F0DF
:1029000035FC204A01981368154633B9636014609A
:1029100003B0BDE8304000F02FBCA3420BD92168C2
:102920006218934204BF1A685B68636004BF521860
:1029300022602C60ECE71A465B680BB1A342FAD91F
:1029400011685518A5420BD1246821445418A3429C
:102950001160DDD11C685B68536021441160D7E7CA
:1029600002D90C230360D3E7256861198B4204BFA9
:1029700019685B68636004BF491921605460C7E748
:1029800003B030BD90000020F8B5CD1C25F0030544
:1029900008350C2D38BF0C25002D064601DBA94259
:1029A00003D90C2333600020F8BD00F0DFFB214980
:1029B0000A6814469CB9204F3B6823B9214630462B
:1029C00000F02AFB38602946304600F025FB431C06
:1029D00023D10C233360304600F0CEFBE3E72368BD
:1029E0005B1B17D40B2B03D923601C44256004E028
:1029F0006368A2420CBF0B605360304600F0BCFB22
:102A000004F10B00231D20F00700C21ACCD01B1AC2
:102A1000A350C9E722466468CCE7C41C24F0030431
:102A2000A042E3D0211A304600F0F6FA0130DDD1A1
:102A3000CFE700BF90000020940000209368013B86
:102A4000002B10B4936008DA9469A34201DB0A29D1
:102A500003D15DF8044BFFF769BC1368581C106084
:102A6000197008465DF8044B7047F8B506460F46E6
:102A70001446D518AC4201D1002007E014F8011B20
:102A80003A463046FFF7DAFF431CF3D1F8BD0000A9
:102A90002DE9F04F0D469DB014469846064618B1F4
:102AA00083690BB9FFF71CFE894B9D421BD17568EA
:102AB0006B6ED90705D4AB899A0502D4A86DFFF7D0
:102AC000ADFEAB891B0701D52B69EBB92946304612
:102AD000FFF77EFCC0B16B6EDC070ED54FF0FF3008
:102AE0001DB0BDE8F08F7B4B9D4201D1B568DFE79B
:102AF000794B9D4208BFF568DAE7AB899805EDD4BC
:102B0000A86DFFF78CFEE9E70023099320238DF8D9
:102B10002930CDF80C803023DFF8C0818DF82A30C1
:102B20004FF0010923469A4613F8012B0AB1252AD2
:102B3000F9D1BAEB040B0BD05B462246294630464E
:102B4000FFF793FF013000F0AA80099A5A440992D6
:102B50009AF80030002B00F0A28000234FF0FF32E3
:102B6000CDE905230AF1010A049307938DF8533048
:102B70001A935446052214F8011B5848FDF728FB08
:102B8000049AD8B9D10644BF20238DF853301307D7
:102B900044BF2B238DF853309AF800302A2B15D0E0
:102BA000079A544600204FF00A0C214611F8013BC9
:102BB000303B092B4ED9B0B1079214E0A0EB0803CB
:102BC00009FA03F313430493A246D2E7039B191DAA
:102BD0001B680391002BBBBF5B4242F002020793CC
:102BE0000793B8BF049223782E2B0CD163782A2B3D
:102BF00035D1039B1A1D1B680392002BB8BF4FF001
:102C0000FF3302340593DFF8E4A021780322504615
:102C1000FDF7DEFA40B14023A0EB0A0003FA00F012
:102C2000049B03430134049314F8011B2C488DF8D2
:102C300028100622FDF7CCFA00283FD0294B1BBBF9
:102C4000039B073323F0070308330393099B3B449B
:102C5000099367E70CFB02320C460120A5E700232D
:102C60000134059319464FF00A0C204610F8012B49
:102C7000303A092A03D9002BC5D00591C3E70CFBD4
:102C8000012104460123F0E703AB00932A46164BCB
:102C900004A93046AFF300800746781CD6D16B6E8E
:102CA000D90705D4AB899A0502D4A86DFFF7B7FD03
:102CB000AB895B063FF512AF099811E703AB0093B0
:102CC0002A46094B04A9304600F080F8E4E700BF2B
:102CD00090320008B032000870320008D03200088C
:102CE000DA320008000000006B2A0008D632000823
:102CF0002DE9F047164699468A680B69DDF8208071
:102D00009342B8BF1346336091F8432007460C4600
:102D10000AB1013333602368990642BF3368023336
:102D20003360256815F0060506D104F1190AE36839
:102D300032689B1AAB4226DC94F84320131E2268AB
:102D400018BF012392062BD404F1430249463846AA
:102D5000C04701301ED02368E568326803F00603DF
:102D6000042B08BFAD1AA36822690CBF25EAE575DC
:102D700000259342C4BF9B1AED1800261A34B542B1
:102D80001AD1002008E00123524649463846C04780
:102D9000013003D14FF0FF30BDE8F0870135C6E7C1
:102DA000E1185A1C302081F84300224494F8451061
:102DB00082F843100233C7E70123224649463846CA
:102DC000C0470130E6D00136D9E700002DE9FF47C2
:102DD0000C469146277E0C99782F80469A4604F13E
:102DE000430207D8622F0AD8002F00F0D880582F4E
:102DF00000F0A38004F1420684F842703AE0A7F1A3
:102E00006303152BF6D801A050F823F0652E0008B7
:102E1000792E0008F52D0008F52D0008F52D000885
:102E2000F52D0008792E0008F52D0008F52D000875
:102E3000F52D0008F52D0008852F0008A92E0008A3
:102E4000672F0008F52D0008F52D0008A72F0008B2
:102E5000F52D0008A92E0008F52D0008F52D000815
:102E60006F2F00080B681A1D1B680A6004F14206E8
:102E700084F842300123A3E0256808682E0600F19B
:102E800004030AD505680B60002D03DA2D236D427B
:102E900084F843305E480A2319E015F0400F0568B6
:102EA0000B6018BF2DB2EFE70B682568181D08608E
:102EB000280601D51D6802E06906FBD51D88544827
:102EC0006F2F0CBF08230A23002184F84310666883
:102ED000A660002EA2BF216821F0040121600DB977
:102EE000002E4DD01646B5FBF3F103FB1157C75D1D
:102EF00006F8017D2F46BB420D46F4D9082B0BD1B5
:102F00002368DF0708D5236961689942DEBF302353
:102F100006F8013C06F1FF36921B2261CDF800A0B5
:102F20004B4603AA21464046FFF7E2FE01304CD152
:102F30004FF0FF3004B0BDE8F087354884F84570A5
:102F400023680E681F0656F8045B0E6014D5D90777
:102F500044BF43F0200323601DB9236823F02003FE
:102F600023601023B0E7236843F020032360782315
:102F7000284884F84530E3E75E0648BFADB2E6E78F
:102F80001646BBE70B68266860691D1D0D60350697
:102F90001B6801D5186002E07106FBD5188000237C
:102FA00023611646BAE70B681A1D0A601E6862683C
:102FB00000213046FDF70CF908B1801B60606368A2
:102FC0002361002384F84330A8E723693246494649
:102FD0004046D0470130ABD023689B0713D4E0684C
:102FE000039B9842B8BF1846A4E7012332464946DE
:102FF0004046D04701309BD00135E36803995B1A06
:10300000AB42F2DCEBE7002504F11906F5E700BF5F
:10301000E1320008F232000838B5064D00230446BC
:1030200008462B6000F0E8F8431C02D12B6803B17E
:10303000236038BD0402002010B50C46B1F90E1013
:1030400000F0A0F80028ABBF636DA3891B1823F420
:103050008053ACBF6365A38110BD2DE9F0411F46CD
:103060008B89DB0505460C46164605D5B1F90E10D1
:103070000223002200F068F8A389B4F90E1023F4AB
:103080008053A38132463B462846BDE8F04100F01C
:1030900017B810B50C46B1F90E1000F055F8431CE6
:1030A000A38915BF606523F4805343F48053A38143
:1030B00018BFA38110BDB1F90E1000F013B80000C5
:1030C00038B5074D04460846114600222A601A46C4
:1030D000FDF75CFA431C02D12B6803B1236038BDB5
:1030E0000402002038B5064D0023044608462B6034
:1030F00000F05AF8431C02D12B6803B1236038BD9D
:103100000402002038B5074D002304460846114646
:103110002B6000F051F8431C02D12B6803B12360EF
:1031200038BD00BF0402002038B5064D0023044618
:1031300008462B6000F048F8431C02D12B6803B10D
:10314000236038BD0402002038B5074D0446084608
:10315000114600222A601A4600F03EF8431C02D1B4
:103160002B6803B1236038BD040200200148FFF73B
:1031700055BB00BFFC0100200148FFF750BB00BF5A
:10318000FC01002038B5074D0446084611460022D0
:103190002A601A4600F028F8431C02D12B6803B1BC
:1031A000236038BD04020020024B58221A604FF001
:1031B000FF30704704020020024B58221A604FF083
:1031C000FF30704704020020024B58221A60002092
:1031D000704700BF04020020024B58221A604FF0D3
:1031E000FF30704704020020024B58221A604FF053
:1031F000FF30704704020020044A05491368002B81
:1032000008BF0B461844106018467047980000200D
:1032100008020020F8B500BFF8BC08BC9E46704705
:0C322000F8B500BFF8BC08BC9E46704723
:10322C000D0A596F75206172652073656E64696E45
:10323C00672061206D6573736167652061733A2542
:10324C00640D0A000D0000000000000000000000EA
:10325C000102030406070809000000000102030430
:10326C001000002000000000000000000000000022
:10327C000000000000000000000000000000000042
:10328C000000000000000000000000000000000032
:10329C000000000000000000000000000000000022
:1032AC000000000000000000000000000000000012
:1032BC000000000000000000000000000000000002
:1032CC0000000000232D302B2000686C4C0065663C
:1032DC00674546470030313233343536373839415B
:1032EC004243444546003031323334353637383971
:0832FC00616263646566000075
:083304009CCFFF7F01000000D7
:04330C00B5010008FF
:04331000910100081F
:1033140001000000100000000024F4001000002050
:103324000000000090320008B0320008703200083B
:103334000000000000000000000000000000000089
:103344000000000000000000000000000000000079
:103354000000000000000000000000000000000069
:103364000000000000000000000000000000000059
:103374000000000000000000000000000000000049
:040000050800216569
:00000001FF
